:020000040800F2
:10000000580D002035020008210600085B05000895
:100010001D060008E5020008DF0E000800000000D1
:10002000000000000000000000000000FD070008C4
:100030006904000800000000B1060008F909000882
:100040004F0200084F0200084F0200084F0200084C
:100050004F0200084F0200084F0200084F0200083C
:100060004F0200084F0200084F0200084F0200082C
:100070004F0200084F0200084F0200084F0200081C
:100080004F0200084F0200084F0200080000000065
:100090000000000000000000000000004F02000807
:1000A0004F0200084F0200084F0200084F020008EC
:1000B0004F0200084F0200084F0200084F020008DC
:1000C0004F0200084F0200084F0200084F020008CC
:1000D0004F020008D10B00088D0C00080000000042
:1000E0004F0200084F0200084F0200080000000005
:1000F0000000000000000000000000004F020008A7
:10010000000000004F0200084F0200084F020008E4
:1001100000000000000000000000000000000000DF
:10012000E90200084F0200084F0200084F020008D1
:100130004F02000800000000000000000000000066
:100140000000000000000000000000004F02000856
:100150004F0200084F0200084F0200084F0200083B
:100160004F0200084F0200080000000000000000DD
:10017000000000000000000000000000000000007F
:10018000000000004F020008000000000000000016
:100190004F02000800F002F800F03CF80AA090E8D6
:1001A000000C82448344AAF10107DA4501D100F032
:1001B00031F8AFF2090EBAE80F0013F0010F18BFC3
:1001C000FB1A43F001031847EC0E00000C0F00006F
:1001D000103A24BF78C878C1FAD8520724BF30C873
:1001E00030C144BF04680C60704700000023002445
:1001F00000250026103A28BF78C1FBD8520728BF37
:1002000030C148BF0B6070471FB500F04DFF1FBDE8
:1002100010B510BD00F038F81146FFF7F5FF00F0FB
:1002200081FE00F056F803B4FFF7F2FF03BC00F0C4
:1002300058FE00000948804709480047FEE7FEE7EE
:10024000FEE7FEE7FEE7FEE7FEE7FEE7FEE7FEE786
:1002500004480549054A064B70470000FD0900089F
:100260009501000858070020580D0020580900206B
:10027000580900207047704770477047704700006A
:1002800000487047F40600207546FFF7F9FFAE46B8
:1002900005006946534620F00700854618B020B592
:1002A000FFF7D6FFBDE820404FF000064FF00007F3
:1002B0004FF000084FF0000B21F00701AC46ACE80E
:1002C000C009ACE8C009ACE8C009ACE8C0098D467B
:1002D000704710B50446AFF300802046BDE81040DB
:1002E000FFF7A1BF00BFFEE710B52021274800F0AF
:1002F00032F91021264800F085F8002840D0254822
:10030000007870BB244800882449254A127821F8D7
:100310001200214840882349214A127821F812000E
:100320001D48808820491E4A127821F812001A4878
:10033000C0881E491A4A127821F8120016484189CD
:100340001B48174A127820F81210134800891949DF
:10035000134A127821F8120011480078401C104905
:1003600008700F48007880280ADB00200C490870CC
:1003700000210748603800F039F80120054908706D
:1003800010210348603800F017F810BD000002404B
:1003900070640240000000202006002020000020A1
:1003A0000100002020010020200200202003002066
:1003B00020040020200500200246094B9A4201D269
:1003C000084801E00648103801F000531BB1064B05
:1003D0000B40C36002E0044B0B4083607047000099
:1003E00010640240006002407D0F7D0F21B1026861
:1003F00042F00102026003E0026822F001020260A2
:100400007047000070B50246002000240025124EFF
:10041000B24201D2114B01E00F4B103B104E0E4087
:1004200036B11E2606EAD124166806EA040502E063
:10043000566906F0800501F000560EB15C6800E0D8
:100440001C68084E344004EA010616B10DB10120C3
:1004500000E0002070BD0000106402400060024017
:100460003C0F3C0F7D0F7D0F7047F0B50A46002111
:100470000023002400BF3DE0012505FA01F31568C3
:1004800005EA03049C4234D105684F000326BE40B0
:10049000B543056015794E00B540066835430560E3
:1004A0001579012D02D01579022D16D185684F00DE
:1004B0000326BE40B543856055794E00B540866839
:1004C00035438560456801268E40B54345604568E3
:1004D00096798E40B6B235434560C5684F00032615
:1004E000BE40B543C560D5794E00B540C6683543BA
:1004F000C560491C1029BFD3F0BDF0B5002300240E
:100500004D07ED0E02FA05F3CE1000F1200555F867
:1005100026504E07F70E0F26BE40B543CF1000F110
:10052000200646F82750CE1000F1200555F8265039
:1005300045EA0304CE1000F1200545F82640F0BD41
:100540000246002053690B400BB1012000E000205F
:100550007047418370470183704700BFFEE700008A
:100560001CB50121084600F0A5F8202000900120CC
:100570008DF8040000208DF8060003208DF805009A
:1005800001208DF8070069460348FFF76EFF202120
:100590000148FFF7DEFF1CBD000002401CB5012131
:1005A000084600F087F80121022000F083F80121BD
:1005B000042000F07FF81020009001208DF8040046
:1005C00000208DF8060003208DF8050001208DF82D
:1005D000070069460E48FFF748FF4FF4007000908F
:1005E00069460C48FFF741FF8020009069460A48A1
:1005F000FFF73BFF10210648FFF7ABFF4FF40071F8
:100600000448FFF7A6FF80210348FFF7A2FF1CBDA7
:1006100000040240000002400008024000BFFEE764
:100620007047000070B5002100230F22C4781CB36E
:10063000174C246804F4E064C4F5E064C4F30721B3
:10064000C1F10404E3B20A4144789C40E1B28478E9
:10065000144021430C07210E0E4C05786155047897
:1006600004F01F050124AC4005786D11AD0005F1C3
:10067000E025C5F8004109E0047804F01F050124D5
:10068000AC40054D0678761145F8264070BD000057
:100690000CED00E000E400E080E100E002490143ED
:1006A000024A1160704700000000FA050CED00E0FE
:1006B0007047000029B1064A12680243044B1A60D1
:1006C00004E0034A12688243014B1A60704700003D
:1006D0003038024029B1064A12680243044B1A60BE
:1006E00004E0034A12688243014B1A60704700001D
:1006F0004038024029B1064A12680243044B1A608E
:1007000004E0034A12688243014B1A6070470000FC
:1007100044380240F0B500210022002402250026C2
:100720000223324F3F6807F00C0121B1042905D0A4
:10073000082937D105E02E4F076036E02D4F0760BE
:1007400033E02A4F3F1F3F68C7F38056274F3F1FB4
:100750003F6807F03F036EB1264FB7FBF3F7DFF8B2
:100760008CC0ACF1040CDCF800C0CCF3881C07FB97
:100770000CF40CE01E4FB7FBF3F7DFF870C0ACF1E0
:10078000040CDCF800C0CCF3881C07FB0CF4174FFA
:100790003F1F3F68C7F301477F1C7D00B4FBF5F79F
:1007A000076002E0124F076000BF00BF0F4F3F68B5
:1007B00007F0F0010909104F7A5C0768D7404760DD
:1007C0000A4F3F6807F4E051890A0B4F7A5C47688B
:1007D000D7408760054F3F6807F46041490B064FDB
:1007E0007A5C4768D740C760F0BD00000838024017
:1007F0000024F40000127A000E0000207047000070
:100800000CB50020019000903348006840F480301F
:100810003149086000BF3048006800F400300090A3
:100820000198401C0190009818B90198B0F5A04FAC
:10083000F1D12948006800F4003010B10120009087
:1008400001E0002000900098012844D12248403067
:10085000006840F080502049403108601F4800681F
:1008600040F440401D4908601B48083000681A49A0
:10087000083108600846006808600846006840F4CF
:10088000805008601648091F0860081F006840F083
:100890008070091F086000BF0F48006800F00070FA
:1008A0000028F9D040F202700E4908600A4808306A
:1008B000006820F003000849083108600846006815
:1008C00040F00200086000BF03480830006800F0F4
:1008D0000C000828F8D10CBD003802400070004020
:1008E00008544107003C024010B52DED028B8AB040
:1008F000B0EE408A01210846FFF7ECFE01210220FC
:10090000FFF7D8FE4FF48060089002208DF8240095
:1009100003208DF8250000208DF8260001208DF899
:10092000270008A92848FFF7A0FD01220A21264830
:10093000FFF7E3FD2920ADF814000020ADF8160004
:100940009FED220AC0EE080AB7EE000A30EEC00A98
:10095000BCEEC00A8DED060AADF81C0005A94FF0EB
:10096000804000F0F3F86020ADF800000120ADF801
:1009700002000220ADF80C006946400700F08AF83A
:100980000821C80600F0D6F80121880700F06AF8AF
:100990000121880700F072F8DFED0C0A80EE880A6A
:1009A000F7EE000A30EE600ABDEEC00A10EE104A03
:1009B00004EBD47041104FF0804000F0C4F80AB04E
:1009C000BDEC028B10BD00000004024000247449FD
:1009D000042808D14FF0E021096941F004014FF0EB
:1009E000E022116107E04FF0E021096921F00401E4
:1009F0004FF0E022116170477047000010B51548B4
:100A0000006840F47000134908601348006840F023
:100A100001001149086000200F49083108600E48A4
:100A200000680E4908400C4908600D48091D08601F
:100A3000081F006820F48020091F08600020064974
:100A40000C310860FFF7DCFE4FF00060014980398F
:100A5000086010BD88ED00E000380240FFFFF6FEA0
:100A60001030002421B1028842F08002028004E0AC
:100A700002884FF67F731A400280704721B10288C6
:100A800042F00102028004E002884FF6FE731A4031
:100A90000280704770B5002400220023058C4FF6B9
:100AA000FF6635400584028C8388848B4FF68F75F2
:100AB0002C404FF6FC752C400D882C434FF6FF550B
:100AC0002A408D894FF6FF7606EA05252A434D8890
:100AD00006EA05252A43154DA84202D0144DA84226
:100AE0001DD14FF2FF752A40CD894FF6FF7606EAF9
:100AF00005252A434FF6FF352A408D8806EA05254D
:100B00002A434EF6FF752B404DF6FF752B400D8A9C
:100B100006EA05152B434D8A06EA05152B4383800B
:100B200084838D68C563028470BD000000000140AD
:100B3000000401400A460021818B4FF6F7731940EB
:100B4000114381837047C16370470000002202880F
:100B5000184B98420ED0184B98420BD0B0F1804FF2
:100B600008D0164B984205D0154B984202D0154B31
:100B7000984204D14FF68F731A404B881A43124B98
:100B8000984207D0114B984204D04FF6FF431A40C9
:100B90000B891A4302804B68C3620B880385054B9F
:100BA000984202D0044B984201D18B7A03860123EC
:100BB00083827047000001400004014000040040AF
:100BC00000080040000C00400010004000140040ED
:100BD00010B540F22551294800F0BEF800284CD04D
:100BE00020212748FFF7ACFC012804D1202124480C
:100BF000FFF7AFFC08E020212148FFF7A1FC18B95E
:100C000020211F48FFF7A7FC1C4800F05FF9C4B281
:100C100021461A4800F05FF91A48008800F40040A5
:100C200058BB1848008800F4804060B10A2C03D0FB
:100C300000201449088020E01248008840F4004059
:100C40001049088019E00D2C06D10E48008840F4A8
:100C500080400C49088010E00A480088C0F30D006D
:100C600009490C5407480088401C0649088008467A
:100C70000088C72801DD0020088010BD0010014059
:100C8000000002400C0000202C06002010B540F2AD
:100C90002551274800F060F8002848D02021254839
:100CA000FFF74EFC012804D120212248FFF751FC18
:100CB00008E020211F48FFF743FC18B920211D48F8
:100CC000FFF749FC1A4800F001F9C4B21A4800883D
:100CD00000F4004058BB1848008800F4804060B120
:100CE0000A2C03D000201449088020E01248008814
:100CF00040F400401049088019E00D2C06D10E4840
:100D0000008840F480400C49088010E00A480088C0
:100D1000C0F30D0009490C5407480088401C0649DF
:100D2000088008460088C72801DD0020088010BD23
:100D300000440040000002400C0000202C0600206F
:100D400021B1828942F40052828104E082894DF609
:100D5000FF731A408281704770B502460024002359
:100D60000025002040F66A16B14200D100BFC1F351
:100D7000421501F01F03012606FA03F3012D02D1EB
:100D80009689334006E0022D02D1168A334001E0F5
:100D9000968A33400C12012606FA04F41688344071
:100DA00013B10CB1012000E0002070BDF0B5034686
:100DB000002400260025002040F66A17B94200D121
:100DC00000BF1846C1F3421401F01F06012707FABD
:100DD00006F5012C01D10C3004E0022C01D11030B9
:100DE00000E014301AB107682F43076002E007687B
:100DF000AF430760F0BD00002DE9FF4705460E46F2
:100E00000024A14600BFA046B08900B100BF2C8AD3
:100E100024F44054F08804432C82AC8941F20C60E5
:100E20008443B08831890843718908430443AC8105
:100E3000AC8A24F44074B0890443AC826846FFF75E
:100E400069FC2048854202D01F48854202D1DDF866
:100E50000C9001E0DDF80890A88900F4004040B152
:100E600009EBC90000EB091031684900B0FBF1F74C
:100E700007E009EBC90000EB091031688900B0FBFD
:100E8000F1F76420B7FBF0F004012009642101FBB5
:100E90001078A88900F4004040B1322000EBC8006F
:100EA000B0FBF1F000F00700044308E0322000EB53
:100EB00008106421B0FBF1F000F00F0004432C8116
:100EC000BDE8FF87001001400014014001468888FA
:100ED000C0F308007047C1F308028280704700BF6A
:100EE000FEE700BF7047000010B504466FF0040035
:100EF000FFF76EFDE11704EB5171C1F3C701074A1B
:100F000011701046007800EB4001C1EBC0104FF6A5
:100F1000FF7101EAC0000249088010BD02000020F4
:100F2000040000204FF4A060FFF7B8FB5420FFF747
:100F3000DBFFFFF715FBFFF731FB02214FF41650E3
:100F400000F008F89FED020AFFF7CEFC00BFFEE7B5
:100F50000000FA4430B587B004460D46012D4CD14F
:100F60000846FFF7A7FB01211020FFF7C3FB07226C
:100F700009214A48FFF7C1FA07220A214748FFF72B
:100F8000BCFA4FF4C060059002208DF818008DF86F
:100F9000190000208DF81A0001208DF81B0005A90A
:100FA0003E48FFF762FA01940020ADF80800ADF862
:100FB0000A00ADF80C00ADF810000C20ADF80E00E2
:100FC00001A93748FFF718FF01213548FFF7B8FEA0
:100FD000012240F225513248FFF7E8FE25208DF826
:100FE000000003208DF801008DF8020001208DF82B
:100FF00003006846FFF716FB4DE0022D4BD101219F
:101000000846FFF757FB01214804FFF763FB07225F
:1010100002212248FFF771FA072203211F48FFF738
:101020006CFA0C20059002208DF818008DF819003C
:1010300000208DF81A0001208DF81B0005A9174823
:10104000FFF713FA01940020ADF80800ADF80A008C
:10105000ADF80C00ADF810000C20ADF80E0001A9A1
:101060001048FFF7C9FE01210E48FFF769FE012273
:1010700040F225510B48FFF799FE26208DF800001D
:1010800003208DF801008DF8020001208DF8030087
:101090006846FFF7C7FA07B030BD00000000024005
:1010A00000100140004400404FF04070E1EE100A93
:1010B00070470000D410000800000020200000004D
:1010C000D0010008F410000820000020380D0000B6
:1010D000EC0100080000000000000000000000001B
:1010E00000000000000001020304010203040607DF
:0410F00008090000EB
:040000050800019559
:00000001FF
