:020000040800F2
:10000000500D00203D020008DD0B0008970B000892
:10001000D90B00085907000867120008000000000B
:10002000000000000000000000000000D90D0008E2
:10003000A50A0008000000006D0C0008ED0E000885
:10004000570200085702000857020008570200082C
:10005000570200085702000857020008570200081C
:10006000570200085702000857020008570200080C
:1000700057020008570200085702000857020008FC
:10008000570200085702000857020008000000004D
:1000900000000000000000000000000057020008FF
:1000A00057020008570200085702000857020008CC
:1000B00057020008570200085702000857020008BC
:1000C00057020008570200085702000857020008AC
:1000D00057020008590F0008151000080000000022
:1000E00057020008570200085702000800000000ED
:1000F000000000000000000000000000570200089F
:1001000000000000570200085702000857020008CC
:1001100000000000000000000000000000000000DF
:100120005D07000857020008570200085702000840
:10013000570200080000000000000000000000005E
:10014000000000000000000000000000570200084E
:10015000570200085702000857020008570200081B
:1001600057020008570200080000000000000000CD
:10017000000000000000000000000000000000007F
:10018000000000005702000800000000000000000E
:100190005702000800F002F800F041F80AA090E8C9
:1001A000000C82448344AAF10107DA4501D100F032
:1001B00036F8AFF2090EBAE80F0013F0010F18BFBE
:1001C000FB1A43F001031847CC120000EC120000A8
:1001D000103A24BF78C878C1FAD8520724BF30C873
:1001E00030C144BF04680C60704700000023002445
:1001F00000250026103A28BF78C1FBD8520728BF37
:1002000030C148BF0B607047642900F0798000203E
:1002100070471FB501F038F91FBD10B510BD00F0D3
:100220003BF91146FFF7F5FF01F04EF800F059F9E0
:1002300003B4FFF7F2FF03BC01F017F80948804749
:1002400009480047FEE7FEE7FEE7FEE7FEE7FEE7B8
:10025000FEE7FEE7FEE7FEE704480549054A064BD0
:1002600070470000F10E00089501000850070020BB
:10027000500D002050090020500900207047000058
:100280000FB4044910B503AA029800F0D3F810BCCB
:100290005DF814FB040000202DE9F0410E460446F1
:1002A000002020622046E168884730B3252805D029
:1002B000D4E901219047206A401CF2E7E16820461A
:1002C00000278847050018D0A5F14100192802D859
:1002D00020354FF400673246294620462760FFF755
:1002E00093FF40B1012804D0F61D26F0070608361A
:1002F000D8E7361DD6E72846DAE7206ABDE8F08160
:100300002DE9F0410646002410687529314616A5EE
:1003100010D0AFF30080002802DA404213A507E0B6
:1003200031688A0701D512A502E0490704D511A555
:10033000012401E0AFF3008000210A2206F1240726
:1003400009E0B0FBF2FCB0FBF2F302FB1C00303022
:1003500078541846491C0028F3D123462A463046D3
:10036000BDE8F04100F00CB8000000002D000000D6
:100370002B00000020000000704770477047704756
:100380002DE9F0470D4699469246044600F12408AF
:100390000168880604D5E06921F01001216000E0C1
:1003A0000120A84201DD471B00E00027A1697A195E
:1003B00002EB0900081AA0612078C00602D420468A
:1003C000AFF30080002608E0D4E901211AF8060006
:1003D0009047206A401C761C20624E45F4DB207852
:1003E000C0060AD52046AFF3008006E0D4E901211B
:1003F00030209047206A401C2062381EA7F1010778
:10040000F4DC07E0D4E9012118F805009047206AE0
:10041000401C2062281EA5F10105F3DC2046AFF345
:1004200000802078000602D50220BDE8F087012078
:10043000FBE70000074B70B50D467B4400F011F858
:100440000446284600F020F810B14FF0FF3070BD90
:10045000204670BD6F0E000001694A1C02610878D9
:10046000704700B58FB0CDE90131002105910549F4
:100470007944CDE9031011466846FFF70DFF0FB030
:1004800000BD0000E5FFFFFF007B00F0800070472B
:1004900000487047F00600207546FFF7F9FFAE46AA
:1004A00005006946534620F00700854618B020B580
:1004B000FFF7D2FEBDE820404FF000064FF00007E6
:1004C0004FF000084FF0000B21F00701AC46ACE8FC
:1004D000C009ACE8C009ACE8C009ACE8C0098D4669
:1004E000704710B50446AFF300802046BDE81040C9
:1004F000FFF79EBE0021084A1168084A1140D0E962
:1005000000231A4383681A43C3681A431143044AF9
:10051000C2F804137047000004230140E030FCFFE0
:100520000020014030B50246002000235068104CE6
:1005300020400D790C6844EA0524204350609068FF
:100540000C4C2040D1E903542C438D682C434D7949
:1005500044EA450420439060D06A20F470000C7D8A
:10056000641EE4B2234340EA0350D06230BD000071
:10057000FFFEFFFCFDF7FFC010B592B0044600205F
:100580006749087067490870012C37D10121084676
:1005900000F06EFB0121080200F08AFB01201090A0
:1005A00003208DF8440000208DF8470010A95E4814
:1005B00000F079FA0121080200F08AFB00212002F4
:1005C00000F086FB00200C900F900E9020040D9000
:1005D0000CA8FFF78FFF002006908DF81C008DF807
:1005E0001D0008900A9001208DF82C0006A94F48A4
:1005F000FFF798FF4E484D4988608FE0022CFCD1F0
:100600000121084600F034FB0121022000F030FBFC
:100610000121042000F02CFB1320109003208DF802
:10062000440000208DF8470010A93F4800F03BFA35
:100630000120109010A93F4800F035FA03201090D7
:1006400010A93D4800F02FFA0121080200F030FB0C
:100650000121080200F03CFB0021E00100F038FB22
:10066000E0033649086036483049486035488860BC
:100670000020C86208633448486334480861012197
:10068000880500F0F5FA38208DF8000001208DF87B
:10069000030000208DF801008DF80200684600F08C
:1006A0009FFA2B4800F0E8F800BF294800F090F9C5
:1006B0000028FAD101901D484C3002902548039043
:1006C0004020049006200590002006904FF48060A2
:1006D00007900020089009900A904FF480300B900A
:1006E00000200C9003200D9000200E900F9001A987
:1006F000174800F0A9F90021154800F0B1F800BF33
:10070000134800F065F90028FAD10621104800F0DE
:10071000C7F901210E4800F0A3F800BF12B010BDC8
:100720000A0000200B0000200000024000200140D1
:1007300001000D0D000402400008024004230140A6
:100740003FA1000403010D0D2010B414FFFF1F0092
:1007500010640240E406002000BFFEE710B520212F
:10076000274800F016FA1021264800F03BF900282F
:1007700040D02548007870BB244800882449254A89
:10078000127821F81200214840882349214A127822
:1007900021F812001D48808820491E4A127821F84D
:1007A00012001A48C0881E491A4A127821F812000D
:1007B000164841891B48174A127820F8121013482E
:1007C00000891949134A127821F81200114800785B
:1007D000401C104908700F48007880280ADB002070
:1007E0000C49087000210748603800F039F80120F2
:1007F0000549087010210348603800F017F810BD53
:1008000000000240706402400A000020E40600205C
:10081000E40000200B000020E4010020E40200209E
:10082000E4030020E4040020E40500200246094B14
:100830009A4201D2084801E00648103801F00053FE
:100840001BB1064B0B40C36002E0044B0B408360BE
:100850007047000010640240006002407D0F7D0F71
:1008600021B1026842F00102026003E0026822F056
:100870000102026070470000016821F0010101607F
:100880000021016041608160C160016121214161FD
:100890004A49884204D13D21484A103A91608CE08F
:1008A00046491831884205D14FF47461434A103AE1
:1008B000916082E041493031884205D14FF4741192
:1008C0003E4A103A916078E03C494831884205D16F
:1008D0004FF07461394A103A91606EE037496031E7
:1008E000884204D13649354A103AD16065E033492F
:1008F0007831884204D13349304A103AD1605CE003
:100900002E499031884204D12F492C4A103AD160A7
:1009100053E02A49A831884205D14FF03D51274A7A
:10092000103AD16049E02949884204D13D21274A43
:10093000083A116041E025491831884205D14FF449
:100940007461224A083A116037E020493031884208
:1009500005D14FF474111D4A083A11602DE01B496E
:100960004831884205D14FF07461184A083A116045
:1009700023E016496031884204D11149134A121FFD
:1009800011601AE011497831884204D10D490F4AAB
:10099000121F116011E00D499031884204D10A49BB
:1009A0000A4A121F116008E00849A831884204D1A0
:1009B0004FF03D51054A121F116070471060024010
:1009C0003D000020400F002000003D201064024048
:1009D000014600200A6802F001020AB1012000E08D
:1009E0000020704770B50246002000240025124EFA
:1009F000B24201D2114B01E00F4B103B104E0E40A2
:100A000036B11E2606EAD124166806EA040502E07D
:100A1000566906F0800501F000560EB15C6800E0F2
:100A20001C68084E344004EA010616B10DB10120DD
:100A300000E0002070BD0000106402400060024031
:100A40003C0F3C0F7D0F7D0F10B500220268134B49
:100A50001A40CC680B6823434C6923438C692343B9
:100A6000CC6923430C6A23434C6A23438C6A234397
:100A70004C6B23438C6B23431A430260426922F080
:100A80000702D1E90B3423431A4342610B694360E7
:100A90004B6883608B68C36010BD00003F801CF012
:100AA000416070477047F0B50A46002100230024DA
:100AB00000BF3DE0012505FA01F3156805EA0304CE
:100AC0009C4234D105684F000326BE40B543056003
:100AD00015794E00B5400668354305601579012D3E
:100AE00002D01579022D16D185684F000326BE402D
:100AF000B543856055794E00B540866835438560BD
:100B0000456801268E40B5434560456896798E401C
:100B1000B6B235434560C5684F000326BE40B543B5
:100B2000C560D5794E00B540C6683543C560491CDF
:100B30001029BFD3F0BDF0B5002300244D07ED0E02
:100B400002FA05F3CE1000F1200555F826504E07A5
:100B5000F70E0F26BE40B543CF1000F1200646F831
:100B60002750CE1000F1200555F8265045EA030421
:100B7000CE1000F1200545F82640F0BD02460020C9
:100B800053690B400BB1012000E000207047418306
:100B900070470183704700BFFEE700001CB50121CC
:100BA000084600F065F82020009001208DF8040030
:100BB00000208DF8060003208DF8050001208DF837
:100BC000070069460348FFF76EFF20210148FFF741
:100BD000DEFF1CBD0000024000BFFEE770470000C2
:100BE00070B5002100230F22C4781CB3174C246871
:100BF00004F4E064C4F5E064C4F30721C1F1040423
:100C0000E3B20A4144789C40E1B284781440214325
:100C10000C07210E0E4C05786155047804F01F0571
:100C20000124AC4005786D11AD0005F1E025C5F853
:100C3000004109E0047804F01F050124AC40054D93
:100C40000678761145F8264070BD00000CED00E0F6
:100C500000E400E080E100E002490143024A116043
:100C6000704700000000FA050CED00E0704700003E
:100C700029B1064A12680243044B1A6004E0034A91
:100C800012688243014B1A607047000030380240FE
:100C900029B1064A12680243044B1A6004E0034A71
:100CA00012688243014B1A607047000040380240CE
:100CB00029B1064A12680243044B1A6004E0034A51
:100CC00012688243014B1A607047000044380240AA
:100CD00029B1064A12680243044B1A6004E0034A31
:100CE00012688243014B1A607047000024380240AA
:100CF000F0B5002100220024022500260223324FF5
:100D00003F6807F00C0121B1042905D0082937D12B
:100D100005E02E4F076036E02D4F076033E02A4F85
:100D20003F1F3F68C7F38056274F3F1F3F6807F0BC
:100D30003F036EB1264FB7FBF3F7DFF88CC0ACF181
:100D4000040CDCF800C0CCF3881C07FB0CF40CE0AE
:100D50001E4FB7FBF3F7DFF870C0ACF1040CDCF802
:100D600000C0CCF3881C07FB0CF4174F3F1F3F68F3
:100D7000C7F301477F1C7D00B4FBF5F7076002E075
:100D8000124F076000BF00BF0F4F3F6807F0F00130
:100D90000909104F7A5C0768D74047600A4F3F68DF
:100DA00007F4E051890A0B4F7A5C4768D7408760A7
:100DB000054F3F6807F46041490B064F7A5C47686E
:100DC000D740C760F0BD0000083802400024F4009E
:100DD00000127A000C000020704700000CB50020C3
:100DE000019000903348006840F480303149086039
:100DF00000BF3048006800F4003000900198401CAB
:100E00000190009818B90198B0F5A04FF1D1294888
:100E1000006800F4003010B10120009001E00020D3
:100E200000900098012844D122484030006840F0EA
:100E300080502049403108601F48006840F440401D
:100E40001D4908601B48083000681A4908310860CD
:100E50000846006808600846006840F48050086052
:100E60001648091F0860081F006840F08070091FBD
:100E7000086000BF0F48006800F000700028F9D03B
:100E800040F202700E4908600A480830006820F0FD
:100E900003000849083108600846006840F0020075
:100EA000086000BF03480830006800F00C00082804
:100EB000F8D10CBD003802400070004008544107D2
:100EC000003C0240042808D14FF0E021096941F0BC
:100ED00004014FF0E022116107E04FF0E0210969C1
:100EE00021F004014FF0E0221161704770470000CB
:100EF00010B51548006840F47000134908601348A5
:100F0000006840F001001149086000200F490831D5
:100F100008600E4800680E4908400C4908600D48FA
:100F2000091D0860081F006820F48020091F086060
:100F3000002006490C310860FFF750FF4FF00060B9
:100F400001498039086010BD88ED00E0003802409A
:100F5000FFFFF6FE1030002410B540F2255129485D
:100F600000F0BEF800284CD020212748FFF706FEED
:100F7000012804D120212448FFF709FE08E02021A0
:100F80002148FFF7FBFD18B920211F48FFF701FE9C
:100F90001C4800F05FF9C4B221461A4800F05FF91E
:100FA0001A48008800F4004058BB1848008800F434
:100FB000804060B10A2C03D000201449088020E052
:100FC0001248008840F400401049088019E00D2CB8
:100FD00006D10E48008840F480400C49088010E09B
:100FE0000A480088C0F30D0009490C5407480088DE
:100FF000401C0649088008460088C72801DD0020FB
:10100000088010BD001001400000024008000020D0
:101010001C00002010B540F22551274800F060F870
:10102000002848D020212548FFF7A8FD012804D139
:1010300020212248FFF7ABFD08E020211F48FFF7E1
:101040009DFD18B920211D48FFF7A3FD1A4800F0A7
:1010500001F9C4B21A48008800F4004058BB18488F
:10106000008800F4804060B10A2C03D000201449AD
:10107000088020E01248008840F4004010490880B1
:1010800019E00D2C06D10E48008840F480400C4930
:10109000088010E00A480088C0F30D0009490C548C
:1010A00007480088401C0649088008460088C72871
:1010B00001DD0020088010BD004400400000024017
:1010C000080000201C00002021B1828942F4005257
:1010D000828104E082894DF6FF731A408281704755
:1010E00070B50246002400230025002040F66A1651
:1010F000B14200D100BFC1F3421501F01F03012628
:1011000006FA03F3012D02D19689334006E0022D41
:1011100002D1168A334001E0968A33400C12012630
:1011200006FA04F41688344013B10CB1012000E033
:10113000002070BDF0B503460024002600250020E5
:1011400040F66A17B94200D100BF1846C1F34214F5
:1011500001F01F06012707FA06F5012C01D10C301A
:1011600004E0022C01D1103000E014301AB10768FD
:101170002F43076002E00768AF430760F0BD00003F
:101180002DE9FF4705460E460024A14600BFA046B4
:10119000B08900B100BF2C8A24F44054F088044385
:1011A0002C82AC8941F20C608443B08831890843B9
:1011B000718908430443AC81AC8A24F44074B0893B
:1011C0000443AC826846FFF793FD2048854202D075
:1011D0001F48854202D1DDF80C9001E0DDF808904F
:1011E000A88900F4004040B109EBC90000EB0910E8
:1011F00031684900B0FBF1F707E009EBC90000EBEB
:10120000091031688900B0FBF1F76420B7FBF0F0FA
:1012100004012009642101FB1078A88900F4004032
:1012200040B1322000EBC800B0FBF1F000F0070045
:10123000044308E0322000EB08106421B0FBF1F019
:1012400000F00F0004432C81BDE8FF87001001402F
:101250000014014001468888C0F308007047C1F3BC
:1012600008028280704700BFFEE700BF70470000A1
:1012700010B504466FF00400FFF724FEE11704EBFD
:101280005171C1F3C701074A11701046007800EB95
:101290004001C1EBC0104FF6FF7101EAC0000249E6
:1012A000088010BD000000200200002000BF054A99
:1012B000128802F04002002AF9D0C2B2014B1B1D75
:1012C0001A807047004400404FF4A060FFF7C4FC50
:1012D0005420FFF7CDFFFFF761FC02214FF41650B9
:1012E00000F028F80220FFF747F91DE00F480188B9
:1012F0000FA0FEF7C5FF0D4841880DA0FEF7C0FF07
:101300000A4881880AA0FEF7BBFF0848C18808A0E8
:10131000FEF7B6FF0548018905A0FEF7B1FF0348B7
:10132000418903A0FEF7ACFFE0E70000E4060020DF
:101330002564000030B587B004460D46012D4CD120
:101340000846FFF795FC01211020FFF7B1FC0722AA
:1013500009214A48FFF7EFFB07220A214748FFF718
:10136000EAFB4FF4C060059002208DF818008DF85C
:10137000190000208DF81A0001208DF81B0005A926
:101380003E48FFF790FB01940020ADF80800ADF84F
:101390000A00ADF80C00ADF810000C20ADF80E00FE
:1013A00001A93748FFF7ECFE01213548FFF78CFE15
:1013B000012240F225513248FFF7BCFE25208DF86E
:1013C000000003208DF801008DF8020001208DF847
:1013D00003006846FFF704FC4DE0022D4BD10121CC
:1013E0000846FFF745FC01214804FFF751FC07229E
:1013F00002212248FFF79FFB072203211F48FFF726
:101400009AFB0C20059002208DF818008DF8190029
:1014100000208DF81A0001208DF81B0005A917483F
:10142000FFF741FB01940020ADF80800ADF80A0079
:10143000ADF80C00ADF810000C20ADF80E0001A9BD
:101440001048FFF79DFE01210E48FFF73DFE0122E7
:1014500040F225510B48FFF76DFE26208DF8000065
:1014600003208DF801008DF8020001208DF80300A3
:101470006846FFF7B5FB07B030BD00000000024032
:1014800000100140004400404FF04070E1EE100AAF
:1014900070470000B4140008000000201C00000089
:1014A000D0010008D01400081C000020340D0000FA
:1014B000EC01000800000000000000000000000037
:1014C00000000000010203040102030406070809EA
:040000050800019559
:00000001FF
