:020000040800F2
:100000004807002035020008BD04000877040008F6
:10001000B904000881030008270B00080000000055
:100020000000000000000000000000009906000829
:1000300085030008000000004D050008AD0700081A
:100040004F0200084F0200084F0200084F0200084C
:100050004F0200084F0200084F0200084F0200083C
:100060004F0200084F0200084F0200084F0200082C
:100070004F0200084F0200084F0200084F0200081C
:100080004F0200084F0200084F0200080000000065
:100090000000000000000000000000004F02000807
:1000A0004F0200084F0200084F0200084F020008EC
:1000B0004F0200084F0200084F0200084F020008DC
:1000C0004F0200084F0200084F0200084F020008CC
:1000D0004F02000819080008D508000800000000B9
:1000E0004F0200084F0200084F0200080000000005
:1000F0000000000000000000000000004F020008A7
:10010000000000004F0200084F0200084F020008E4
:1001100000000000000000000000000000000000DF
:100120004F0200084F0200084F0200084F0200086B
:100130004F02000800000000000000000000000066
:100140000000000000000000000000004F02000856
:100150004F0200084F0200084F0200084F0200083B
:100160004F0200084F0200080000000000000000DD
:10017000000000000000000000000000000000007F
:10018000000000004F020008000000000000000016
:100190004F02000800F002F800F03CF80AA090E8D6
:1001A000000C82448344AAF10107DA4501D100F032
:1001B00031F8AFF2090EBAE80F0013F0010F18BFC3
:1001C000FB1A43F0010318474C0B00006C0B0000B6
:1001D000103A24BF78C878C1FAD8520724BF30C873
:1001E00030C144BF04680C60704700000023002445
:1001F00000250026103A28BF78C1FBD8520728BF37
:1002000030C148BF0B6070471FB500F07DFD1FBDBA
:1002100010B510BD00F06EF81146FFF7F5FF00F0C5
:10022000B3FC00F0A0F803B4FFF7F2FF03BC00F04A
:100230007CFC00000948804709480047FEE7FEE7CC
:10024000FEE7FEE7FEE7FEE7FEE7FEE7FEE7FEE786
:1002500004480549054A064B70470000B1070008ED
:1002600095010008480100204807002048030020AD
:1002700048030020704700000FB4044910B503AADA
:10028000029800F009F810BC5DF814FB040000208F
:100290007047704770477047074B70B50D467B44F9
:1002A00000F011F80446284600F020F810B14FF095
:1002B000FF3070BD204670BDCB08000001694A1CAC
:1002C00002610878704700B58FB0CDE90131002197
:1002D000059105497944CDE903101146684600F0BF
:1002E0002EF80FB000BD0000E5FFFFFF007B00F01F
:1002F00080007047754600F03FF8AE46050069463D
:10030000534620F00700854618B020B5FFF7A0FF40
:10031000BDE820404FF000064FF000074FF0000806
:100320004FF0000B21F00701AC46ACE8C009ACE887
:10033000C009ACE8C009ACE8C0098D4670472DE99A
:10034000F04106460024D6E90170F5688046304643
:1003500003E04146B847641C3046A8470028F8D15E
:100360002046BDE8F08110B50446AFF3008020467A
:10037000BDE81040FFF757BF00487047E400002079
:1003800000BFFEE77047F0B50A46002100230024B5
:1003900000BF3DE0012505FA01F3156805EA0304F5
:1003A0009C4234D105684F000326BE40B54305602A
:1003B00015794E00B5400668354305601579012D65
:1003C00002D01579022D16D185684F000326BE4054
:1003D000B543856055794E00B540866835438560E4
:1003E000456801268E40B5434560456896798E4044
:1003F000B6B235434560C5684F000326BE40B543DD
:10040000C560D5794E00B540C6683543C560491C06
:100410001029BFD3F0BDF0B5002300244D07ED0E29
:1004200002FA05F3CE1000F1200555F826504E07CC
:10043000F70E0F26BE40B543CF1000F1200646F858
:100440002750CE1000F1200555F8265045EA030448
:10045000CE1000F1200545F82640F0BD02460020F0
:1004600053690B400BB1012000E00020704741832D
:1004700070470183704700BFFEE700001CB50121F3
:10048000084600F065F82020009001208DF8040057
:1004900000208DF8060003208DF8050001208DF85E
:1004A000070069460348FFF76EFF20210148FFF768
:1004B000E0FF1CBD0000024000BFFEE770470000E7
:1004C00070B5002100230F22C4781CB3174C246898
:1004D00004F4E064C4F5E064C4F30721C1F104044A
:1004E000E3B20A4144789C40E1B28478144021434D
:1004F0000C07210E0E4C05786155047804F01F0599
:100500000124AC4005786D11AD0005F1E025C5F87A
:10051000004109E0047804F01F050124AC40054DBA
:100520000678761145F8264070BD00000CED00E01D
:1005300000E400E080E100E002490143024A11606A
:10054000704700000000FA050CED00E07047000065
:1005500029B1064A12680243044B1A6004E0034AB8
:1005600012688243014B1A60704700003038024025
:1005700029B1064A12680243044B1A6004E0034A98
:1005800012688243014B1A607047000040380240F5
:1005900029B1064A12680243044B1A6004E0034A78
:1005A00012688243014B1A607047000044380240D1
:1005B000F0B5002100220024022500260223324F3C
:1005C0003F6807F00C0121B1042905D0082937D173
:1005D00005E02E4F076036E02D4F076033E02A4FCD
:1005E0003F1F3F68C7F38056274F3F1F3F6807F004
:1005F0003F036EB1264FB7FBF3F7DFF88CC0ACF1C9
:10060000040CDCF800C0CCF3881C07FB0CF40CE0F5
:100610001E4FB7FBF3F7DFF870C0ACF1040CDCF849
:1006200000C0CCF3881C07FB0CF4174F3F1F3F683A
:10063000C7F301477F1C7D00B4FBF5F7076002E0BC
:10064000124F076000BF00BF0F4F3F6807F0F00177
:100650000909104F7A5C0768D74047600A4F3F6826
:1006600007F4E051890A0B4F7A5C4768D7408760EE
:10067000054F3F6807F46041490B064F7A5C4768B5
:10068000D740C760F0BD0000083802400024F400E5
:1006900000127A000A000020704700000CB500200C
:1006A000019000903348006840F480303149086080
:1006B00000BF3048006800F4003000900198401CF2
:1006C0000190009818B90198B0F5A04FF1D12948D0
:1006D000006800F4003010B10120009001E000201B
:1006E00000900098012844D122484030006840F032
:1006F00080502049403108601F48006840F4404065
:100700001D4908601B48083000681A490831086014
:100710000846006808600846006840F48050086099
:100720001648091F0860081F006840F08070091F04
:10073000086000BF0F48006800F000700028F9D082
:1007400040F202700E4908600A480830006820F044
:1007500003000849083108600846006840F00200BC
:10076000086000BF03480830006800F00C0008284B
:10077000F8D10CBD00380240007000400854410719
:10078000003C0240042808D14FF0E021096941F003
:1007900004014FF0E022116107E04FF0E021096908
:1007A00021F004014FF0E022116170477047000012
:1007B00010B51548006840F47000134908601348EC
:1007C000006840F001001149086000200F4908311D
:1007D00008600E4800680E4908400C4908600D4842
:1007E000091D0860081F006820F48020091F0860A8
:1007F000002006490C310860FFF750FF4FF0006001
:1008000001498039086010BD88ED00E000380240E1
:10081000FFFFF6FE1030002410B540F225512948A4
:1008200000F0BEF800284CD020212748FFF716FE24
:10083000012804D120212448FFF719FE08E02021D7
:100840002148FFF70BFE18B920211F48FFF711FEC2
:100850001C4800F05FF9C4B221461A4800F05FF965
:100860001A48008800F4004058BB1848008800F47B
:10087000804060B10A2C03D000201449088020E099
:100880001248008840F400401049088019E00D2CFF
:1008900006D10E48008840F480400C49088010E0E2
:1008A0000A480088C0F30D0009490C540748008825
:1008B000401C0649088008460088C72801DD002042
:1008C000088010BD00100140000002400800002018
:1008D0001C00002010B540F22551274800F060F8B8
:1008E000002848D020212548FFF7B8FD012804D171
:1008F00020212248FFF7BBFD08E020211F48FFF719
:10090000ADFD18B920211D48FFF7B3FD1A4800F0CE
:1009100001F9C4B21A48008800F4004058BB1848D6
:10092000008800F4804060B10A2C03D000201449F4
:10093000088020E01248008840F4004010490880F8
:1009400019E00D2C06D10E48008840F480400C4977
:10095000088010E00A480088C0F30D0009490C54D3
:1009600007480088401C0649088008460088C728B8
:1009700001DD0020088010BD00440040000002405E
:10098000080000201C00002021B1828942F400529E
:10099000828104E082894DF6FF731A40828170479C
:1009A00070B50246002400230025002040F66A1698
:1009B000B14200D100BFC1F3421501F01F0301266F
:1009C00006FA03F3012D02D19689334006E0022D89
:1009D00002D1168A334001E0968A33400C12012678
:1009E00006FA04F41688344013B10CB1012000E07B
:1009F000002070BDF0B5034600240026002500202D
:100A000040F66A17B94200D100BF1846C1F342143C
:100A100001F01F06012707FA06F5012C01D10C3061
:100A200004E0022C01D1103000E014301AB1076844
:100A30002F43076002E00768AF430760F0BD000086
:100A40002DE9FF4705460E460024A14600BFA046FB
:100A5000B08900B100BF2C8A24F44054F0880443CC
:100A60002C82AC8941F20C608443B0883189084300
:100A7000718908430443AC81AC8A24F44074B08982
:100A80000443AC826846FFF793FD2048854202D0BC
:100A90001F48854202D1DDF80C9001E0DDF8089096
:100AA000A88900F4004040B109EBC90000EB09102F
:100AB00031684900B0FBF1F707E009EBC90000EB32
:100AC000091031688900B0FBF1F76420B7FBF0F042
:100AD00004012009642101FB1078A88900F400407A
:100AE00040B1322000EBC800B0FBF1F000F007008D
:100AF000044308E0322000EB08106421B0FBF1F061
:100B000000F00F0004432C81BDE8FF870010014076
:100B10000014014001468888C0F308007047C1F303
:100B200008028280704700BFFEE700BF70470000E8
:100B300010B504466FF00400FFF724FEE11704EB44
:100B40005171C1F3C701074A11701046007800EBDC
:100B50004001C1EBC0104FF6FF7101EAC00002492D
:100B6000088010BD000000200200002000BF054AE0
:100B7000128802F04002002AF9D0C2B2014B1B1DBC
:100B80001A807047004400404FF4A060FFF7D4FC87
:100B90005420FFF7CDFFFFF771FC02214FF41650F0
:100BA00000F008F802E002A0FFF766FBFBE7000098
:100BB0003100000030B587B004460D46012D4CD100
:100BC0000846FFF7C5FC01211020FFF7E1FC0722D2
:100BD00009214A48FFF71FFC07220A214748FFF76F
:100BE0001AFC4FF4C060059002208DF818008DF8B3
:100BF000190000208DF81A0001208DF81B0005A9AE
:100C00003E48FFF7C0FB01940020ADF80800ADF8A6
:100C10000A00ADF80C00ADF810000C20ADF80E0085
:100C200001A93748FFF70CFF01213548FFF7ACFE5B
:100C3000012240F225513248FFF7DCFE25208DF8D5
:100C4000000003208DF801008DF8020001208DF8CE
:100C500003006846FFF734FC4DE0022D4BD1012123
:100C60000846FFF775FC01214804FFF781FC0722C5
:100C700002212248FFF7CFFB072203211F48FFF77D
:100C8000CAFB0C20059002208DF818008DF8190081
:100C900000208DF81A0001208DF81B0005A91748C7
:100CA000FFF771FB01940020ADF80800ADF80A00D1
:100CB000ADF80C00ADF810000C20ADF80E0001A945
:100CC0001048FFF7BDFE01210E48FFF75DFE01222F
:100CD00040F225510B48FFF78DFE26208DF80000CD
:100CE00003208DF801008DF8020001208DF803002B
:100CF0006846FFF7E5FB07B030BD0000000002408A
:100D000000100140004400404FF04070E1EE100A36
:100D100070470000340D0008000000201C00000097
:100D2000D0010008500D00081C0000202C07000016
:100D3000EC010008000000000000000000000000BE
:100D40000000010203040102030406070809000071
:040000050800019559
:00000001FF
