:020000040800F2
:10000000500D00204D0200087D190008CF1800088F
:100010001119000821150008072000080000000041
:10002000000000000000000000000000791B000834
:100030007F170008000000000D1A00088D1C000842
:1000400067020008670200086702000867020008EC
:1000500067020008670200086702000867020008DC
:1000600067020008670200086702000867020008CC
:1000700067020008670200086702000867020008BC
:10008000670200086702000867020008000000001D
:1000900000000000000000000000000067020008EF
:1000A000670200086702000867020008670200088C
:1000B000670200086702000867020008670200087C
:1000C000670200086702000867020008670200086C
:1000D00067020008F91C0008B51D000800000000B8
:1000E00067020008670200086702000800000000BD
:1000F000000000000000000000000000670200088F
:10010000000000006702000867020008670200089C
:1001100000000000000000000000000000000000DF
:10012000670200086702000867020008670200080B
:10013000670200080000000000000000000000004E
:10014000000000000000000000000000670200083E
:1001500067020008670200086702000867020008DB
:1001600067020008670200080000000000000000AD
:10017000000000000000000000000000000000007F
:1001800000000000670200080000000000000000FE
:100190006702000800F002F800F049F80AA090E8B1
:1001A000000C82448344AAF10107DA4501D100F032
:1001B0003EF8AFF2090EBAE80F0013F0010F18BFB6
:1001C000FB1A43F001031847F0240000102500003B
:1001D000103A24BF78C878C1FAD8520724BF30C873
:1001E00030C144BF04680C60704700000023002445
:1001F00000250026103A28BF78C1FBD8520728BF37
:1002000030C148BF0B607047662902F008820020A9
:1002100070471FB502F0F9F900F0A0FA04000020C1
:10022000002102F03BF8E0601FBD10B510BD00F0EA
:10023000B1FB1146FFF7EDFF01F070FF00F0CFFBBF
:1002400003B4FFF7F2FF03BC01F0F7FE0948804753
:1002500009480047FEE7FEE7FEE7FEE7FEE7FEE7A8
:10026000FEE7FEE7FEE7FEE704480549054A064BC0
:1002700070470000911C00089501000850070020FD
:10028000500D002050090020500900207047000048
:100290000FB4044910B503AA029800F04DFA10BC3F
:1002A0005DF814FB040000202DE9F0410E460446E1
:1002B000002020622046E168884730B3252805D019
:1002C000D4E901219047206A401CF2E7E16820460A
:1002D00000278847050018D0A5F14100192802D849
:1002E00020354FF400673246294620462760FFF745
:1002F0008BFF40B1012804D0F61D26F00706083612
:10030000D8E7361DD6E72846DAE7206ABDE8F0814F
:10031000704770477047704770472DE9FF4F0C4694
:100320001E464FF0FF378BB0D2E90001DDF8608048
:100330000A908A46C1F30A5505B93D460021084690
:100340004FF00000BAF1000F00F4400005DA00EBB6
:1003500080004FF4400101EA50004FEA9059B9F192
:10036000010F00DDB9460A9850EA4A000ED044F663
:100370001050A5F2FF3545432F14B8F1000F1ED0E1
:100380007542291E1EDDC9F100021CE0B8F1010F03
:100390004FF0000001D0302103E0F24305E021548A
:1003A000401CB042FBDB30460022002121540B9957
:1003B000C1F80880C1E900200FB0BDE8F08FBD1B77
:1003C0006D1CDEE74A4600DA694206A800F068FACA
:1003D00006AB93E8070003AB83E8070050460A9991
:1003E00000F046FB8DE80700A0F500501F38009094
:1003F0000398002D0ADD42F21F014A4608440023FB
:1004000003A90390684600F0AFFD09E0A0F5005095
:100410004A461F38002303A90390684600F0B9FD3F
:100420008DE807000004000C03D04FF0FF304108B6
:1004300000E01046B8F1000F03D0002200921546EC
:100440001EE0751E05D400F08DF9303262556D1E28
:10045000F9D5B3460122084302D000227F1C04E0F4
:100460002078302801D100227F1E002A099784D0ED
:100470001DE0112D07DA00F075F9303262556D1C60
:1004800050EA0102F5D1084302D00098C8B10EE04D
:100490000021681E05E0235C625C63542254401E08
:1004A000491C8142F7DBAB46A81B401E0990002087
:1004B00004F80B000B98099AC0F80880C0E9002BDB
:1004C0007AE711264FF0000857E72DE9F04F8846EC
:1004D0000446D21D22F0070191B0D1E90001CDE917
:1004E0000A0101F092FD02460B98C00F01D02D20A9
:1004F00007E02068810701D52B2002E0202101EAD6
:10050000C000032A099001D0072A05DB03464146B3
:10051000204600F085F90BE12078800601D5E069DE
:1005200000E00620B8F1650F814606D0B8F1660FED
:1005300018D0B8F1670F70D131E00020B9F1110F78
:10054000009001DB112301E009F101030AAA01A9CE
:100550000CA8FFF7E2FEDDE90C70002609F10105A9
:10056000834647E001204B4600904FF000470AAA1F
:1005700001A90CA8FFF7D1FEDDE90DB00C995D468D
:10058000002610B909F101000D18B9EB050003D4DC
:10059000C0F1FF3609F10105A5EB09002BE0B9F127
:1005A000010F01DA4FF001090020B9F1110F00909D
:1005B000484601DD112300E003460AAA01A90CA860
:1005C000FFF7ABFEDDE90C704D4600268346207830
:1005D00000070AD4AB4500DA5D4601A8012D04DD11
:1005E000411911F8011C302907D04F4502DA17F1E3
:1005F000040F04DA012082460FE06D1EEEE7002FA3
:1006000002DCED1B3E4403E0781CA84200DD7D1CAB
:10061000B81B00F1010A4FF000472078000703D40F
:10062000AA4501DB4FF0FF3A0021B7F1004F0DF171
:1006300043088DF8431024D002202B23002F01DA29
:100640007F422D230A21021EA0F1010000DC5FB1D0
:1006500097FBF1FC97FBF1F201FB1C7C17460CF1B8
:10066000300C08F801CDEEE7A8F1010003702188F5
:10067000090501D5452100E06521A0F1010800F838
:10068000011C09980FA9A1EB0807FF1D00B101206B
:10069000411901EBEA70A1693844081A401EA061B3
:1006A0002078C00602D42046AFF30080099828B114
:1006B000D4E901219047206A401C20622078C006BE
:1006C00022D52046AFF300801EE0002E04DBB345A8
:1006D00002DD01A8805D00E03020D4E901219047CF
:1006E000206A401C2062761CAAF101005FEA000A21
:1006F0000AD100F033F8C0680168405CD4E90121F8
:100700009047206A401C2062281EA5F10105DCDC10
:1007100007E0D4E9012118F8010B9047206A401C3A
:100720002062381EA7F10107F3DC2046AFF30080FA
:10073000032011B041E60000074B70B50D467B4425
:1007400000F05BF80446284600F01CF910B14FF0A9
:10075000FF3070BD204670BDBF19000000487047D3
:100760001007002030B5B0F10A024FEA900E71F187
:1007700000034EEA817EB0EB0E0061EB91014FEA7F
:10078000101E4EEA017E10EB0E0041EB11114FEAF4
:10079000102E4EEA016E10EB0E0041EB11214FEAD4
:1007A000104E4EEA014E10EB0E0041EB1141401885
:1007B00041F100014FEAD00040EA41704FEAD10117
:1007C00010EB80054FEA810444EA907444EB010485
:1007D0006D1944EB0404521BA3414FF0000348BFC2
:1007E0000A3200D530BD401C41F1000130BD00008F
:1007F00001694A1C02610878704700B58FB0CDE9E5
:1008000001310021059105497944CDE903101146D4
:100810006846FFF749FD0FB000BD0000E5FFFFFF90
:100820002DE9F0411F46044603260168072A01F41A
:10083000006004DB08B116A505E016A503E008B1C9
:1008400015A500E015A521F010002060A069C01ECC
:10085000A0610FB1401EA0612046AFF300804FB1F0
:10086000D4E9012138469047206A401C2062C01C10
:10087000206206E0206AFAE7D4E9012115F8010BAD
:100880009047761EF8D22046AFF30080BDE8F08195
:100890004E414E006E616E00494E4600696E660024
:1008A0002DE9F047814616468AB0354878440DC890
:1008B0008DE80D0032487844801C03AC0DC884E8F4
:1008C0000D0041F69B300844372190FBF1F290FB7C
:1008D000F1F5A5F1800501FB12041B3C02D5644231
:1008E000012000E00020DFF898A080460027FA44AD
:1008F000AAF1BE0A0EE0E0070AD03246684607EBCE
:10090000470101230AEB810100F043FB8DE807005A
:1009100064107F1C002CEED1194F7F44AE3F19E0CC
:10092000E80715D007EB04100DF1180A90E80E0047
:100930008AE80E00C068F04201D19819089032464A
:10094000012306A903A800F024FB03AB83E80700FA
:100950006D10641C002DE3D14FF00103324669464F
:10096000B8F1000F03A802D000F0FEFA01E000F099
:1009700010FBC9E90001C9F808200AB0BDE8F087FA
:10098000F01D0000007B00F08000704700487047B9
:10099000F00600207546FFF7F9FFAE4605006946F0
:1009A000534620F00700854618B020B5FFF75CFCE1
:1009B000BDE820404FF000064FF000074FF0000860
:1009C0004FF0000B21F00701AC46ACE8C009ACE8E1
:1009D000C009ACE8C009ACE8C0098D46704710B545
:1009E0000446AFF300802046BDE81040FFF728BC66
:1009F0004FF0013C50F8042B51F8043B9A4221D1AE
:100A0000A2EB0C03934313EACC1317D150F8042B39
:100A100051F8043B9A4215D1A2EB0C03934313EA1D
:100A2000CC130BD150F8042B51F8043B9A4209D156
:100A3000A2EB0C03934313EACC13DBD04FF000007E
:100A4000704700BFD01A01BAB1FA81F101F0180164
:100A500022FA01F0CB40C1F12001DBB2C0B2C01AD2
:100A60002CFA01F3D11A914311EAC311E6D1704770
:100A70005FEA400C08BF91F0000F4FEA8C234FEA69
:100A8000C12243EA51514FEA1C5018BF00F5F04013
:100A90004FEA300018BF41F000415FEA6C5C00F0A3
:100AA0002980BCF1FF3F08BF40F080407047130C25
:100AB00006BF12044FF0100C4FF0000C130E04BFD1
:100AC00012020CF1080C130F04BF12010CF1040CFC
:100AD000930F04BF92000CF1020CD30F04BF52001D
:100AE0000CF1010C11464FF00002A0F11F00A0EB29
:100AF0000C00704711F0004F08BF704731F0004103
:100B00003FF4D5AF0B0C06BF09044FF0100C4FF0AB
:100B1000000C0B0E04BF09020CF1080C0B0F04BFF4
:100B200009010CF1040C8B0F04BF89000CF1020CBD
:100B3000CB0F04BF49000CF1010CCCF12003A0EB5A
:100B40000C0022FA03F302FA0CF241EA030100F16D
:100B50000100704720F07F4C80EA030023F07F47BC
:100B6000ACEB070303F57C5300F0004003F1FF03F7
:100B70002DE980494FEA154B09B44FEA144325EAA1
:100B80000B4E24EA03480FF2042606EB132749080C
:100B90003E785FEA320203FB0667C7F5000707FBF2
:100BA00006F64FEA54374FEAD64606F1020607FB2F
:100BB000066CCCF1005C4FEA1C472CEA074C07FBA3
:100BC00006F40CFB06F504EB15464FEA961634BF07
:100BD00000204FF000404FEAD13706FB07FC4FEAF8
:100BE0001C4C0CFB0BF7D21B03FB0CF761EB070152
:100BF0000CFB0EF7B0EB074072EB17420CFB08F74B
:100C000034BFA2EB0742B2EB074261EB17414FEA58
:100C10000C444FEA910706FB07FC4FEA1C4C0CFB07
:100C20000BF7B0EBC74072EB573203FB0CF734BF46
:100C3000A2EBC742B2EBC74261EB57310CFB0EF798
:100C4000B0EBC70072EB57720CFB08F734BFA2EB96
:100C5000C702B2EBC70261EB5771039F4FEA816194
:100C600041EA921104EBCC044FEAD1374FEA826299
:100C700006FB07FC42EA90124FEA80604FEA1C4CE8
:100C80000CFB0BF7D21B03FB0CF761EB07010CFB12
:100C90000EF7B0EB074072EB17420CFB08F734BFBE
:100CA000A2EB0742B2EB074261EB17414FEA8C55CA
:100CB0004FEA910704EB9C2406FB07FC4FEA1C4C0F
:100CC0000CFB0BF7B0EBC74072EB573203FB0CF792
:100CD00034BFA2EBC742B2EBC74261EB57310CFB0A
:100CE0000EF7B0EBC70072EB57720CFB08F734BF7E
:100CF000A2EBC702B2EBC70261EB577115EB4C25B3
:100D00004FEA816141EA92114FEA82624FEAD1379C
:100D100042EA901206FB07FC44F100044FEA8060AF
:100D20004FEA1C4C0CFB0BF7D21B03FB0CF761EBDF
:100D300007010CFB0EF7B0EB074072EB17420CFB00
:100D400008F734BFA2EB0742B2EB074261EB174151
:100D500015EB1C154FEA813141EA92414FEA82328C
:100D600042EA90424FEA80304FEA0C7644F10004A8
:100D700048EA03434EEA0B484FF0000EB2EB080C72
:100D800071EB030724BF624639464EEB0E0E4FF05F
:100D9000000B0018524149414BEB0B0BB2EB080C16
:100DA00071EB03077BF1000B24BF624639464EEB23
:100DB0000E0E4FF0000B0018524149414BEB0B0B4C
:100DC000B2EB080C71EB03077BF1000B24BF62460A
:100DD00039464EEB0E0E51EA020718BF46F00106E7
:100DE00016EB0E7655F1000254F1000103D5BDE873
:100DF0008901BDE80088BDE88901BDE80048B61951
:100E0000524141EB0101A3F10103704780807F7ED5
:100E10007D7C7B7A79787776767574737271717070
:100E20006F6E6E6D6C6C6B6A6A6968686766666522
:100E30006464636362616160605F5F5E5E5D5D5CB0
:100E40005C5B5B5A5A595958585757565655555521
:100E50005454535352525251515050504F4F4F4E81
:100E60004E4D4D4D4C4C4C4B4B4B4A4A4A494949CF
:100E70004848484747474746464645454544444411
:100E8000444343434342424242414141002B9C463A
:100E900030D477002BD01CB54FEA370703B44FF09E
:100EA00010004FF01001BAF1000F06D0BCF1000F96
:100EB000DCBF40F0080040F008014FF000000FBC1C
:100EC000BDE810400BF1010BBBF1010F08BF5FEA59
:100ED000170722BF12F1010211F101014FF0004189
:100EE00043F1000300F0004043EA00007047F9D3EB
:100EF0005708D0E746EA064613F1400F4FEA164678
:100F00001FDD13F1200FDFBF16430A4600212033F7
:100F10005B42BED0C3F1200746EA064602FA07F755
:100F20004FEA164646EA0706C3F1200722FA03F203
:100F300001FA07F721FA03F14FF0000342EA070232
:100F4000A7E746EA020646EA06464FEA164646EA9A
:100F50000106BCBF46EA0646360C4FF000034FF0D0
:100F600000024FF0000194E72DE9804C9A46934629
:100F700070B491E8380007C831EA400C48BF34EA41
:100F8000430C03D5FFF7E6FDFFF780FFF0BCBDE89B
:100F9000008C2DE9804C9A46934670B491E8380055
:100FA00007C810F0804F08BF13F0804F03D100F046
:100FB00005F8FFF76BFFF0BCBDE8008C20F07F4721
:100FC00080EA030023F07F4C07EB0C03A3F57C536E
:100FD00000F00040A3F1FE0392F0000F00F0B38098
:100FE00095F0000F00F077802DE901494FEA11409C
:100FF0004FEA144621EA004800FB06FC24EA0647B3
:1010000008FB06F607FB08F800FB07F718EB064895
:101010004CEB164C4FEA124B18EB07484FEA1546BB
:101020004CEB174022EA0B4E0BFB06FC25EA064769
:101030000EFB06F607FB0EFE0BFB07F71EEB064E3C
:101040004CEB164C4FF000061EEB074E4CEB174BCB
:1010500018EB0B0840F1000018EB0E0B58EB0008E2
:1010600040F100008F1A4FF000013CBFC943661BDE
:1010700014BFB5EB040C00213CBFC943F61B4FEA7B
:1010800017444EEA8E0E27EA04454FEA1C4704FB3C
:1010900007622CEA074C05FB07F70CFB05F604FB7F
:1010A0000CFC16EB074642EB174216EB0C4642EBE4
:1010B0001C421BEB060658EB0202414146EA9E0623
:1010C00001D5BDE80189B619524141EB0101A3F1F7
:1010D0000103BDE801894FEA14454FEA114724EAAC
:1010E000054621EA074C05FB07F406FB07F70CFB56
:1010F00006F105FB0CFC11EB074144EB17444FEAEA
:10110000124711EB0C4144EB1C4422EA074C05FB4F
:1011100007F206FB07F70CFB06F605FB0CFC16EBCB
:10112000074642EB174216EB0C4642EB1C456A1889
:1011300054F1000148BF7047B619524141EB01011B
:10114000A3F10103704795F0000F37D04FEA114229
:101150004FEA144721EA024624EA074C02FB07F152
:1011600006FB07F70CFB06F402FB0CFC14EB074430
:1011700041EB17414FEA154714EB0C4441EB1C417E
:1011800025EA074C02FB07F506FB07F70CFB06F602
:1011900002FB0CFC16EB074645EB174516EB0C461D
:1011A00045EB1C42121951F1000148BF7047B619B6
:1011B000524141EB0101A3F1010370474FEA14458D
:1011C0004FEA114724EA054621EA074C05FB07F1DF
:1011D00006FB07F70CFB06F24FF0000605FB0CFCC4
:1011E00012EB074241EB174112EB0C4251EB1C4151
:1011F00048BF7047921841EB0101A3F1010370470A
:101200000021084A1168084A1140D0E900231A4316
:1012100083681A43C3681A431143044AC2F804138B
:101220007047000004230140E030FCFF0020014033
:101230000146C86C80B270470246002013680B401C
:101240000BB1012000E000207047000030B50246DD
:10125000002000235068104C20400D790C6844EAAF
:1012600005242043506090680C4C2040D1E9035481
:101270002C438D682C434D7944EA4504204390600B
:10128000D06A20F470000C7D641EE4B2234340EA6F
:101290000350D06230BD0000FFFEFFFCFDF7FFC031
:1012A000F0B504460D4600200021092D11DDE0684F
:1012B000A5F10A0606EB4607072606FA07F188435A
:1012C000A5F10A0606EB460603FA06F10843E060BC
:1012D0000CE0206905EB4507072606FA07F188436D
:1012E00005EB450603FA06F108432061072A0FDAE9
:1012F000606B561E06EB86071F2606FA07F1884329
:10130000561E06EB860605FA06F10843606322E0E6
:101310000D2A0FDA206BD61F06EB86071F2606FA6A
:1013200007F18843D61F06EB860605FA06F1084347
:10133000206310E0E06AA2F10D0606EB86071F2687
:1013400006FA07F18843A2F10D0606EB860605FAB8
:1013500006F10843E062F0BD816841F080418160A0
:101360007047000010B592B0044600205E49087036
:101370005E490870012C37D10121084600F048FB76
:101380000121080200F064FB0120109003208DF879
:10139000440000208DF8470010A9554800F0F0F9EE
:1013A0000121080200F064FB0021200200F060FB34
:1013B00000200C900F900E9020040D900CA8FFF7C9
:1013C0001FFF002006908DF81C008DF81D0008906E
:1013D0000A9001208DF82C0006A94648FFF736FF39
:1013E0004548444988607CE0022C7AD101210846B6
:1013F00000F00EFB0121022000F00AFB0121042075
:1014000000F006FB1320109003208DF8440000200C
:101410008DF8470010A9364800F0B2F9012010906D
:1014200010A9364800F0ACF90320109010A93448F8
:1014300000F0A6F90121080200F00AFB01210802D0
:1014400000F016FB0021E00100F012FBE0032D4943
:1014500008602D48274948602C4888602C4848631C
:101460002C4808610121401C00F0D2FA2F208DF891
:10147000000001208DF8030000208DF801008DF898
:101480000200684600F07CFA234800F071F801A8D9
:1014900000F064F906200590002004901F48039096
:1014A00020030990C010079080100A9011484C301A
:1014B0000290C01408900020069020040B9001A90F
:1014C000154800F01FF901221021134800F0FCF824
:1014D0001021114800F026F801210F4800F03CF8D7
:1014E00000BF12B010BD00000A0000200B00002059
:1014F000000002400020014001000D0D00040240E8
:1015000000080240042301403FA1000403010D0D27
:101510002010B414FFFF1F00B8600240E406002052
:1015200000BFFEE70246094B9A4201D2084801E09B
:101530000648103801F000531BB1064B0B40C36046
:1015400002E0044B0B4083607047000010640240CF
:10155000006002407D0F7D0F21B1026842F0010260
:10156000026003E0026822F001020260704700009E
:10157000016821F00101016000210160416081608A
:10158000C1600161212141614A49884204D13D2164
:10159000484A103A91608CE046491831884205D19A
:1015A0004FF47461434A103A916082E0414930310E
:1015B000884205D14FF474113E4A103A916078E0A8
:1015C0003C494831884205D14FF07461394A103A9C
:1015D00091606EE037496031884204D13649354A1E
:1015E000103AD16065E033497831884204D13349FB
:1015F000304A103AD1605CE02E499031884204D1E3
:101600002F492C4A103AD16053E02A49A831884228
:1016100005D14FF03D51274A103AD16049E02949A0
:10162000884204D13D21274A083A116041E025490A
:101630001831884205D14FF47461224A083A11608A
:1016400037E020493031884205D14FF474111D4AEA
:10165000083A11602DE01B494831884205D14FF00E
:101660007461184A083A116023E0164960318842D3
:1016700004D11149134A121F11601AE0114978313F
:10168000884204D10D490F4A121F116011E00D4923
:101690009031884204D10A490A4A121F116008E0B9
:1016A0000849A831884204D14FF03D51054A121F24
:1016B00011607047106002403D000020400F002084
:1016C00000003D201064024010B501F080034BB1D2
:1016D00022B1436943F08003436103E0436923F08F
:1016E0008003436180290BD02AB1036801F01E04F6
:1016F0002343036004E0036801F01E04A343036076
:1017000010BD000010B500220268134B1A40CC68CF
:101710000B6823434C6923438C692343CC692343DF
:101720000C6A23434C6A23438C6A23434C6B234348
:101730008C6B23431A430260426922F00702D1E90D
:101740000B3423431A4342610B6943604B68836047
:101750008B68C36010BD00003F801CF00021016059
:1017600041608160C160016141618161C16101626B
:1017700041628162C1620163416381637047704766
:10178000F0B50A4600210023002400BF3DE00125FA
:1017900005FA01F3156805EA03049C4234D1056893
:1017A0004F000326BE40B543056015794E00B54095
:1017B0000668354305601579012D02D01579022D93
:1017C00016D185684F000326BE40B5438560557924
:1017D0004E00B540866835438560456801268E40D9
:1017E000B5434560456896798E40B6B2354345604D
:1017F000C5684F000326BE40B543C560D5794E008D
:10180000B540C6683543C560491C1029BFD3F0BD3B
:10181000F0B5002300244D07ED0E02FA05F3CE10BB
:1018200000F1200555F826504E07F70E0F26BE4052
:10183000B543CF1000F1200646F82750CE1000F136
:10184000200555F8265045EA0304CE1000F1200586
:1018500045F82640F0BD0246002053690B400BB10D
:10186000012000E0002070474183704701837047EA
:1018700010B504460723012221460848FFF710FD52
:101880000648FFF769FD00BF02210448FFF7D4FCBA
:101890000028F9D00148FFF7CBFC10BD0020014023
:1018A0002DE9F04107460C460025002608E03846A1
:1018B000FFF7DEFF0544052000F0E0FB701CC6B218
:1018C000A642F4DBB5FBF4F080B2BDE8F08100BFC6
:1018D000FEE700001CB50121084600F099F8202021
:1018E000009001208DF8040000208DF806000320F0
:1018F0008DF8050001208DF8070069460348FFF7C1
:101900003FFF20210148FFF7AFFF1CBD0000024050
:1019100000BFFEE710B52DED068B14210020FFF768
:10192000BFFF08EE100AB8EE480A10EE100A00F0E9
:10193000FBFD41EC1A0B9FED0D0B53EC102B00F04F
:10194000F5FC41EC190B00F0BFFC0446204600F00A
:10195000EBFD41EC190B53EC192B06A0FEF798FC9C
:10196000FA2000F08BFBBDEC068B10BD6666666648
:1019700066664A3F2566200A0000000070470000A6
:1019800070B5002100230F22C4781CB3174C2468C3
:1019900004F4E064C4F5E064C4F30721C1F1040475
:1019A000E3B20A4144789C40E1B284781440214378
:1019B0000C07210E0E4C05786155047804F01F05C4
:1019C0000124AC4005786D11AD0005F1E025C5F8A6
:1019D000004109E0047804F01F050124AC40054DE6
:1019E0000678761145F8264070BD00000CED00E049
:1019F00000E400E080E100E002490143024A116096
:101A0000704700000000FA050CED00E07047000090
:101A100029B1064A12680243044B1A6004E0034AE3
:101A200012688243014B1A60704700003038024050
:101A300029B1064A12680243044B1A6004E0034AC3
:101A400012688243014B1A60704700004038024020
:101A500029B1064A12680243044B1A6004E0034AA3
:101A600012688243014B1A607047000044380240FC
:101A700029B1064A12680243044B1A6004E0034A83
:101A800012688243014B1A607047000024380240FC
:101A9000F0B5002100220024022500260223324F47
:101AA0003F6807F00C0121B1042905D0082937D17E
:101AB00005E02E4F076036E02D4F076033E02A4FD8
:101AC0003F1F3F68C7F38056274F3F1F3F6807F00F
:101AD0003F036EB1264FB7FBF3F7DFF88CC0ACF1D4
:101AE000040CDCF800C0CCF3881C07FB0CF40CE001
:101AF0001E4FB7FBF3F7DFF870C0ACF1040CDCF855
:101B000000C0CCF3881C07FB0CF4174F3F1F3F6845
:101B1000C7F301477F1C7D00B4FBF5F7076002E0C7
:101B2000124F076000BF00BF0F4F3F6807F0F00182
:101B30000909104F7A5C0768D74047600A4F3F6831
:101B400007F4E051890A0B4F7A5C4768D7408760F9
:101B5000054F3F6807F46041490B064F7A5C4768C0
:101B6000D740C760F0BD0000083802400024F400F0
:101B700000127A000C000020704700000CB5002015
:101B8000019000903348006840F48030314908608B
:101B900000BF3048006800F4003000900198401CFD
:101BA0000190009818B90198B0F5A04FF1D12948DB
:101BB000006800F4003010B10120009001E0002026
:101BC00000900098012844D122484030006840F03D
:101BD00080502049403108601F48006840F4404070
:101BE0001D4908601B48083000681A490831086020
:101BF0000846006808600846006840F480500860A5
:101C00001648091F0860081F006840F08070091F0F
:101C1000086000BF0F48006800F000700028F9D08D
:101C200040F202700E4908600A480830006820F04F
:101C300003000849083108600846006840F00200C7
:101C4000086000BF03480830006800F00C00082856
:101C5000F8D10CBD00380240007000400854410724
:101C6000003C0240042808D14FF0E021096941F00E
:101C700004014FF0E022116107E04FF0E021096913
:101C800021F004014FF0E02211617047704700001D
:101C900010B51548006840F47000134908601348F7
:101CA000006840F001001149086000200F49083128
:101CB00008600E4800680E4908400C4908600D484D
:101CC000091D0860081F006820F48020091F0860B3
:101CD000002006490C310860FFF750FF4FF000600C
:101CE00001498039086010BD88ED00E000380240ED
:101CF000FFFFF6FE1030002410B540F225512948B0
:101D000000F0BEF800284CD020212748FFF7A3FDA3
:101D1000012804D120212448FFF7A6FD08E0202156
:101D20002148FFF798FD18B920211F48FFF79EFDB5
:101D30001C4800F05FF9C4B221461A4800F05FF970
:101D40001A48008800F4004058BB1848008800F486
:101D5000804060B10A2C03D000201449088020E0A4
:101D60001248008840F400401049088019E00D2C0A
:101D700006D10E48008840F480400C49088010E0ED
:101D80000A480088C0F30D0009490C540748008830
:101D9000401C0649088008460088C72801DD00204D
:101DA000088010BD00100140000002400800002023
:101DB0001C00002010B540F22551274800F060F8C3
:101DC000002848D020212548FFF745FD012804D1EF
:101DD00020212248FFF748FD08E020211F48FFF797
:101DE0003AFD18B920211D48FFF740FD1A4800F0C0
:101DF00001F9C4B21A48008800F4004058BB1848E2
:101E0000008800F4804060B10A2C03D000201449FF
:101E1000088020E01248008840F400401049088003
:101E200019E00D2C06D10E48008840F480400C4982
:101E3000088010E00A480088C0F30D0009490C54DE
:101E400007480088401C0649088008460088C728C3
:101E500001DD0020088010BD004400400000024069
:101E6000080000201C00002021B1828942F40052A9
:101E7000828104E082894DF6FF731A4082817047A7
:101E800070B50246002400230025002040F66A16A3
:101E9000B14200D100BFC1F3421501F01F0301267A
:101EA00006FA03F3012D02D19689334006E0022D94
:101EB00002D1168A334001E0968A33400C12012683
:101EC00006FA04F41688344013B10CB1012000E086
:101ED000002070BDF0B50346002400260025002038
:101EE00040F66A17B94200D100BF1846C1F3421448
:101EF00001F01F06012707FA06F5012C01D10C306D
:101F000004E0022C01D1103000E014301AB107684F
:101F10002F43076002E00768AF430760F0BD000091
:101F20002DE9FF4705460E460024A14600BFA04606
:101F3000B08900B100BF2C8A24F44054F0880443D7
:101F40002C82AC8941F20C608443B088318908430B
:101F5000718908430443AC81AC8A24F44074B0898D
:101F60000443AC826846FFF793FD2048854202D0C7
:101F70001F48854202D1DDF80C9001E0DDF80890A1
:101F8000A88900F4004040B109EBC90000EB09103A
:101F900031684900B0FBF1F707E009EBC90000EB3D
:101FA000091031688900B0FBF1F76420B7FBF0F04D
:101FB00004012009642101FB1078A88900F4004085
:101FC00040B1322000EBC800B0FBF1F000F0070098
:101FD000044308E0322000EB08106421B0FBF1F06C
:101FE00000F00F0004432C81BDE8FF870010014082
:101FF0000014014001468888C0F308007047C1F30F
:1020000008028280704700BFFEE703B401984100D8
:10201000009850EAC12018BF04204A0D18BF40F0B4
:10202000010040F2FF72B2EB515F08BF40F00200C6
:10203000012808BF052002B0704700BF70470000AC
:1020400010B504466FF00400FFF70CFEE11704EB37
:102050005171C1F3C701074A11701046007800EBB7
:102060004001C1EBC0104FF6FF7101EAC000024908
:10207000088010BD000000200200002070B504465A
:102080004FF4077094FBF0F0C6B24FF4077094FB66
:10209000F0F100FB114085B205E04FF4077000F04D
:1020A00009F8701EC6B2002EF7D115B1284600F00F
:1020B00001F870BD0146114A12884A434FF0E023EF
:1020C0005A6100229A611A46126942F001021A61AD
:1020D00000BF4FF0E022106900F001021AB100F4D5
:1020E0008032002AF5D04FF0E022126922F001027E
:1020F0004FF0E0231A6100229A617047020000202D
:1021000000BF054A128802F04002002AF9D0C2B28C
:10211000014B1B1D1A807047004400404FF4A06023
:10212000FFF76AFC5420FFF78BFFFFF7D3FB022178
:102130004FF4165000F008F80120FFF713F901E002
:10214000FFF7E8FBFCE7000030B587B004460D461A
:10215000012D4CD10846FFF75BFC01211020FFF751
:1021600077FC072209214A48FFF752FB07220A2180
:102170004748FFF74DFB4FF4C060059002208DF8F3
:1021800018008DF8190000208DF81A0001208DF834
:102190001B0005A93E48FFF7F3FA01940020ADF8B3
:1021A0000800ADF80A00ADF80C00ADF810000C20E6
:1021B000ADF80E0001A93748FFF7B2FE01213548FE
:1021C000FFF752FE012240F225513248FFF782FE0E
:1021D00025208DF8000003208DF801008DF8020005
:1021E00001208DF803006846FFF7CAFB4DE0022D81
:1021F0004BD101210846FFF70BFC01214804FFF7F2
:1022000017FC072202212248FFF702FB07220321C5
:102210001F48FFF7FDFA0C20059002208DF81800EA
:102220008DF8190000208DF81A0001208DF81B0090
:1022300005A91748FFF7A4FA01940020ADF808009B
:10224000ADF80A00ADF80C00ADF810000C20ADF8A8
:102250000E0001A91048FFF763FE01210E48FFF7A9
:1022600003FE012240F225510B48FFF733FE2620E2
:102270008DF8000003208DF801008DF80200012088
:102280008DF803006846FFF77BFB07B030BD000008
:1022900000000240001001400044004010B5002939
:1022A0000AD00878002807D005487844FEF7A0FB3C
:1022B000002801D0002010BD0248784410BD000065
:1022C0002E0400002604000021F00042A2F160521A
:1022D000B2F5801F01F0004328BFD2F17F6C0BD90B
:1022E0005FEA001C43EAC20242EB507018BF70471D
:1022F00028BF20F001007047B2F5801FBCBF184610
:1023000070474FEA410C1CF5001F02D2084600F04E
:1023100081B970B500F0B4F800000089FFF7F6BF8E
:102320004FF00040A0F5800070470000DFF848C182
:1023300070B51CEA111E1EBF1CEA13159EEA0C0F95
:1023400095EA0C0F00F06F8081EA030423EA4C1336
:102350004EEAD47E21EA4C1141F4801143F48013FB
:10236000AE44A1FB024CA0FB0365AEF17F7E3619A3
:1023700055EB0C05A1FB034C4CF10003A0FB021C28
:1023800016EB0C06654153F10003094218BF46F0F5
:10239000010613F4007F0BD14FEA03314FEA0530F9
:1023A000340341EA155140EA16506FF003020AE087
:1023B0004FEAC3214FEAC520F40241EA555140EAF1
:1023C00056506FF0020202EB2E4201EB025585EAF5
:1023D000CE710AD05FEA440C18BF24F0004450F1DB
:1023E000000041F1000120EAD47040F2FE7C624519
:1023F00000D270BDA84214BF4FF080444FF040445B
:10240000002E08BF0024BEF1806FA8BFA1F1C0411B
:10241000BDE8704080F282804FF0000001F1C041C1
:1024200001F0004170479EEA0C0F0CEA131518BF2B
:1024300095EA0C0F06D04FF0000081EA030E0EF073
:10244000004170BD00F01CF88900013E00F007B8A3
:1024500000F009B84FEA430C5FEA5C5C08D081EAFF
:10246000030100F05BB84FEA410C5FEA5C5CF6D117
:102470004FF00000014970470000FF070000F87F9F
:102480000EF1020E2EF0030E5EF8046B364205D4F8
:10249000012A43EB030515F5001F12D8012841EB73
:1024A000010C1CF5001F0CD80ED14FEAD17C15F59C
:1024B000001F0CEB4C0C0CF1020C08BF4CEBD37C56
:1024C00004E04FF0080C01E04FEAD37C0CEB4C0524
:1024D00026FA05F606F00706B6F1040C06D20EEB56
:1024E000860CBDE870404CF0010C6047DFE80CF052
:1024F000090B02024FF000414FF00000A1F500214E
:1025000070BD19461046012851EB010418BFD4F5DF
:10251000001484BF002001F0004170BD0808A0F540
:1025200000114FEA3101704743004FEAD30C4FEAE4
:102530003C0C43401FBF40070CF1605113F0FE4FAD
:1025400070471CF0006F03D100200CF00041704771
:102550000CF0004343EA507010B540EACC0000F0A4
:102560000EF800BF000000924FEA0001FFF7D6BF4F
:102570004FF000414FF00000A1F5002170470EF12F
:10258000020E2EF0030E5EF8044B244204D44FEAF0
:102590004102B2F17F4F11D84FEA4003B3F17F4FB0
:1025A0000CD80ED14FEAD07CB2F17F4F0CEB4C0C23
:1025B0000CF1020C08BF4CEBD17C04E04FF0080C8E
:1025C00001E04FEAD17C0CEB4C0324FA03F404F055
:1025D0000704B4F1040C06D20EEB840CBDE81040E5
:1025E0004CF0010C6047DFE80CF0070802024FF0E6
:1025F0000040A0F5800010BD0846420018BFD2F18F
:10260000807288BF00F0004010BD4FF04070E1EED6
:10261000100A7047FF2141EAD050C0057047FDF70E
:1026200054BF000002400000000000A000000000B5
:1026300005400000000000C8000000000C40000041
:102640000000409C00000000194000000020BCBEBB
:102650000000000034400000BFC91B8E00000004D1
:10266000B5400000504BCFD06607E2CF010000001C
:102670006C4100003E8251AADFEEA7340100000049
:10268000D9420000DCB5A0E23A301F97FFFFFFFF00
:10269000B4450000FD25A0C8E9A3C14FFFFFFFFF1F
:1026A000FF3F00000000008000000000FF3F00002E
:1026B0000000008000000000F42600080000002058
:1026C0001C000000D0010008102700081C0000209A
:1026D000340D0000EC0100081C0000004300000065
:1026E000F8FFFFFF0C0000000E0000000F000000CC
:1026F0002E000000000000000000000000000000AC
:102700000000000001020304010203040607080997
:040000050800019559
:00000001FF
